:200000000C94EB100C941C110C941C110C941C110C941C110C941C110C941C110C941C11AA
:200020000C941C110C94AA980C9481980C9458980C941C110C944B960C941C110C941C11E0
:200040000C941C110C941C110C941C110C941C110C941C110C941C110C941C110C940E98BF
:200060000C941C110C94CA950C94A0950C941C110C941C110C941C110C941C110C941C11DE
:200080000C941C110C941C110C941C110C941C110C941C110C941C110C941C110C94D399B9
:2000A0000C941C110C941C110C941C110C941C110C941C110C941C110C941C110C941C11D8
:2000C0000C941C110C941C110C941C110C9476950C944C950C941C110C9422950C94F8943D
:2000E0000C941C110C94C5A90C94B5AF0C94D0AD0C9446870C94AE8F0C94DEAE0C94F28379
:200100000C94298F0C94DDB10C94C9830C949BB20C94A18D0C945C8F0C9485870C94A087B4
:200120000C9491870C9499A90C9476870C9414140C940D8E0C9421160C94528F0C945D2C04
:200140000C9409140C94568F0C94EE130C948D900C9474B20C94562C0C94B2730C9411A6FB
:200160000C94FE130C94B3860C94A6870C941B8E0C94F5AD0C94B7A50C94A0830C94558762
:200180000C94812C0C94FE140C94B2870C9436AE0C947C730C94218F0C9494870C94853212
:2001A0000C9498B20C949D730C94671E0C9482210C9494B20C94AC870C94E28F0C946890DB
:2001C0000C948E870C949A730C949B8F0C9489730C94EBB10C943A8F0C9490AA0C94F8AA96
:2001E0000C9411B20C946D870C948C130C9479870C947A2C0C94852C0C94C5B00C94D3AF5B
:200200000C945AAD0C9443AE0C94E7A90C94B5870C9473870C947E2C0C944BB30C94448FA5
:200220000C947F870C9497870C9407B30C946D730C944E8F0C9420140C94DD850C94B58F49
:200240000C94BB940C9479B20C949D870C9407B00C9483B20C94678E0C946C900C941B8484
:200260000C9474830C94A28D0C94AF730C9472850C941B8F0C9464910C941E110C949A9146
:200280000C9482870C945E870C94A9870C94B2230C94D61E0C943F160C941CB30C948EA81D
:2002A0000C94AE180C946A870C94B6AD0C94A3870C94C7910C9467870C947E570C946187F7
:2002C0000C949C840C9401140C94608F0C940D140C9411AD0C949A870C944F870C942D8F68
:2002E0000C9420B30C948B180C9488870C94403A0C9470870C940C870C94C4B30C94408F2F
:200300000C948B8F0C9482900C94368F0C94F2130C945B8F0C94258F0C9411900C94F98D22
:200320000C9472140C9448860C94488F0C945C140C945D940C94F7B10C94B6730C947FA839
:200340000C94B48E0C9452900C948B870C94A48D0C94622C0C9458870C940DB20C947C8707
:200360000C94EBB20C9489150C9404B30C94EA8D0C946D910C94A38D0C9407850C94062133
:200380000C940AB20C945B870C9477830C94FAB20C9464B20C947C130C9417140C94692CB4
:2003A0000C9430AD0C9452870C9464870C948C8F0C9449870C948E180C9408B20C9419B385
:2003C0000C944C870C94FC130C94123B0C94AF870C94308F0C949FB200407A10F35A00A031
:2003E000724E18090010A5D4E80000E87648170000E40B54020000CA9A3B000000E1F5052F
:20040000000080969800000040420F000000A08601000000102700000000E8030000000054
:200420006400000000000A00000000000100000000002C76D888DC674F0823DFC1DFAE5908
:20044000E1B1B796E5E3E453C63AE651997696E8E6C28426EB898C9B62ED407C6FFCEFBCEC
:200460009C9F40F2BAA56FA5F490055A2AF75C936B6CF9676DC11BFCE0E40D47FEF520E61C
:20048000B500D0ED902E0300943577050080841E080000204E0A000000C80C333333330F93
:2004A000986E12831141EF8D2114893BE65516CFFEE6DB18D1844B381BF77C1D901DA4BB54
:2004C000E424203284725E228100C9F124ECA1E53D27546F6F44656570004E6F4D656D6F1C
:2004E000727900496E76616C6964496E70757400496E636F6D706C657465496E707574001A
:20050000456D707479496E707574004F6B00646F63756D656E742E676574456C656D656EDF
:200520007442794964282754313227292E76616C7565203D20686578326E756D28646F639C
:20054000756D656E742E676574456C656D656E7442794964282754313127292E76616C7597
:2005600065293B2200646F63756D656E742E676574456C656D656E744279496428275431BD
:200580003027292E76616C7565203D20686578326E756D28646F63756D656E742E67657457
:2005A000456C656D656E74427949642827543927292E76616C7565293B00646F63756D65B1
:2005C0006E742E676574456C656D656E74427949642827543827292E76616C7565203D20A6
:2005E000686578326E756D28646F63756D656E742E676574456C656D656E744279496428E5
:2006000027543727292E76616C7565293B00646F63756D656E742E676574456C656D656E06
:2006200074427949642827543627292E76616C7565203D20686578326E756D28646F637553
:200640006D656E742E676574456C656D656E74427949642827543527292E76616C756529AA
:200660003B00646F63756D656E742E676574456C656D656E74427949642827543427292EEB
:2006800076616C7565203D20686578326E756D28646F63756D656E742E676574456C656D81
:2006A000656E74427949642827543327292E76616C7565293B003D20686578326E756D286A
:2006C000646F63756D656E742E676574456C656D656E74427949642827543127292E7661F2
:2006E0006C7565293B004F6E636C69636B3D22646F63756D656E742E676574456C656D6579
:200700006E74427949642827543227292E76616C756520003E3C2F74643E3C2F74723E3C75
:200720002F666F726D3E3C2F7461626C653E3C2F626F64793E3C2F68746D6C3E00223E3C96
:200740002F74643E3C2F74723E3C74723E3C74643E3C62723E3C2F74643E3C2F74723E3C79
:2007600074723E3C74643E3C696E7075742069643D22627574746F6E3122747970653D223B
:200780007375626D6974222076616C75653D225355424D4954222000223E2E3C696E70756B
:2007A0007420747970653D2274657874222073697A653D223322206D61786C656E67746826
:2007C0003D223322206E616D653D2244543138222076616C75653D2200223E2E3C696E7075
:2007E000757420747970653D2274657874222073697A653D223322206D61786C656E6774D9
:20080000683D223322206E616D653D2244543137222076616C75653D2200223E2E3C696E3D
:2008200070757420747970653D2274657874222073697A653D223322206D61786C656E679C
:2008400074683D223322206E616D653D2244543136222076616C75653D2200223E3C2F74EC
:20086000643E3C2F74723E3C74723E3C74643E47573A203C696E70757420747970653D22F0
:2008800074657874222073697A653D223322206D61786C656E6774683D223322206E616DEA
:2008A000653D2244543135222076616C75653D2200223E2E3C696E70757420747970653D9F
:2008C0002274657874222073697A653D223322206D61786C656E6774683D223322206E61F5
:2008E0006D653D2244543134222076616C75653D2200223E2E3C696E707574207479706530
:200900003D2274657874222073697A653D223322206D61786C656E6774683D223322206ED8
:20092000616D653D2244543133222076616C75653D2200223E2E3C696E70757420747970F4
:20094000653D2274657874222073697A653D223322206D61786C656E6774683D22332220A1
:200960006E616D653D2244543132222076616C75653D2200223E3C2F74643E3C2F74723E4E
:200980003C74723E3C74643E4D41534B3A203C696E70757420747970653D2274657874228B
:2009A0002073697A653D223322206D61786C656E6774683D223322206E616D653D22445454
:2009C0003131222076616C75653D2200223E2E3C696E70757420747970653D2274657874F7
:2009E000222073697A653D223322206D61786C656E6774683D223322206E616D653D224446
:200A0000543130222076616C75653D2200223E2E3C696E70757420747970653D22746578D7
:200A200074222073697A653D223322206D61786C656E6774683D223322206E616D653D22D5
:200A4000445439222076616C75653D2200223E2E3C696E70757420747970653D227465787B
:200A600074222073697A653D223322206D61786C656E6774683D223322206E616D653D2295
:200A8000445438222076616C75653D22005436223E3C2F74643E3C2F74723E3C74723E3C32
:200AA00074643E49503A203C696E70757420747970653D2274657874222073697A653D225F
:200AC0003322206D61786C656E6774683D223322206E616D653D22445437222076616C753C
:200AE000653D2200223E3C696E7075742069643D225431302220747970653D226869646469
:200B0000656E22206E616D653D22445435223E3C696E7075742069643D225431322220746E
:200B20007970653D2268696464656E22206E616D653D224400223E3C696E7075742069645D
:200B40003D2254362220747970653D2268696464656E22206E616D653D22445433223E3C34
:200B6000696E7075742069643D2254382220747970653D2268696464656E22206E616D65BB
:200B80003D2244543400223E3C696E7075742069643D2254322220747970653D22686964F4
:200BA00064656E22206E616D653D22445431223E3C696E7075742069643D2254342220749D
:200BC0007970653D2268696464656E22206E616D653D2244543200223E2E3C696E707574F6
:200BE0002069643D225431312220747970653D2274657874222073697A653D223222206D8E
:200C000061786C656E6774683D223222206E616D653D22445436222076616C75653D22001A
:200C2000223E2E3C696E7075742069643D2254392220747970653D2274657874222073699B
:200C40007A653D223222206D61786C656E6774683D223222206E616D653D22445435222038
:200C600076616C75653D2200223E2E3C696E7075742069643D2254372220747970653D22C4
:200C800074657874222073697A653D223222206D61786C656E6774683D223222206E616DE8
:200CA000653D22445434222076616C75653D2200223E2E3C696E7075742069643D22543517
:200CC0002220747970653D2274657874222073697A653D223222206D61786C656E67746854
:200CE0003D223222206E616D653D22445433222076616C75653D2200223E2E3C696E707512
:200D0000742069643D2254332220747970653D2274657874222073697A653D223222206D27
:200D200061786C656E6774683D223222206E616D653D22445432222076616C75653D2200FD
:200D40003C696E7075742069643D2254312220747970653D2274657874222073697A653DF4
:200D6000223222206D61786C656E6774683D223222206E616D653D22445431222076616CF4
:200D800075653D22003C2F7363726970743E3C7461626C653E3C666F726D3E3C696E707534
:200DA0007420747970653D2268696464656E22206E616D653D2253424D222076616C75658F
:200DC0003D2231223E3C74723E3C74643E4D41433A003C7363726970743E66756E637469CE
:200DE0006F6E20686578326E756D2028735F68657829207B6576616C2822766172206E5FE4
:200E00006E756D3D305822202B20735F686578293B72657475726E206E5F6E756D3B7D0020
:200E20006666663B666F6E742D73697A653A313270783B223E3C74723E3C74643E266E62DE
:200E4000737020506F6F6C6D61737465722045746865726E657420536574757020506167A1
:200E6000653C2F74643E3C2F74723E3C2F7461626C653E3C62723E003D22302220776964E9
:200E800074683D2231303025222063656C6C70616464696E673D223122207374796C653D68
:200EA00022666F6E742D66616D696C793A56657264616E613B636F6C6F723A2366666600C6
:200EC0006C6566746D617267696E3D223022207374796C653D226D617267696E3A20303B45
:200EE0002070616464696E673A20303B223E3C7461626C65206267636F6C6F723D222339CF
:200F000039393939392220626F72646572003C68746D6C3E3C7469746C653E506F6F6C4D42
:200F200061737465722045746865726E657420536574757020506167653C2F7469746C65D8
:200F40003E3C626F6479206D617267696E77696474683D223022206D617267696E68656926
:200F60006768743D2230222000202D205165756564206D657373616765733A20004672650D
:200F80006552616D3A2000436F756C64206E6F742061646420636F6D6D616E6420746F209F
:200FA00071756575652C2071756575652069732066756C6C00416464656420636F6D6D61CD
:200FC0006E6420746F2071756575653A200045746865726E6574204F4B2E2049503A200063
:200FE000526573746F72696E672045746865726E65742077697468207374617469632049E8
:20100000502E2E2E005265747279696E672045746865726E65742076696120444843502E76
:201020002E2E0045746865726E6574207374696C6C20756E617661696C61626C6500505386
:2010400049204572726F720073746F726167652E46696C74726174696F6E44757261746975
:201060006F6E3A200062005B6D656D436865636B5D3A20004661696C656420746F20636F6E
:201080006E6E65637420746F20746865204D5154542062726F6B6572004F727032007048AE
:2010A0003200494F3200494F0043686C46004163696446004661696C656420746F20636F4E
:2010C0006E6E65637420746F20746865204D5154542062726F6B65720043686C5570540059
:2010E00050685570540046696C557054004F72700050534900704800546D700062005B6DBB
:20110000656D436865636B5D3A20004661696C656420746F20636F6E6E65637420746F20F3
:20112000746865204D5154542062726F6B6572004F7270465200704846520043686C545689
:201140000070485456004661696C656420746F20636F6E6E65637420746F20746865204D0A
:201160005154542062726F6B6572004F72704B64004F72704B69004F72704B700070484B1D
:20118000640070484B690070484B70004661696C656420746F20636F6E6E65637420746FB7
:2011A00020746865204D5154542062726F6B6572005053494331005053494330004F7270D3
:2011C0004331004F7270433000704843310070484330005445004661696C656420746F209F
:2011E000636F6E6E65637420746F20746865204D5154542062726F6B6572005053494D5409
:2012000000505349485400574C5400575350004F7270535000704853500043686C57530065
:2012200070485753004661696C656420746F20636F6E6E65637420746F20746865204D51D8
:2012400054542062726F6B65720043686C55544C00704855544C0044706964004653746F8B
:20126000004653746F4D004644750046537461004677000B050005F004E304DA04D2045285
:20128000737450534943616C005273744F727043616C00527374704843616C0043686C7069
:2012A000756D7046520043686C50756D7046520043686C50756D70465200704850756D7048
:2012C000465200704850756D70465200704850756D704652005265626F6F740052656C61A3
:2012E000790052656C61790052656C61790052656C61790052656C61790052656C61790084
:2013000052656C61790052656C6179005053494869676800505349486967680044656C6185
:20132000795049440044656C617950494400436C65617200507562506572696F6400507555
:2013400062506572696F6400555254430046696C7454310046696C7454310073746F726139
:2013600067652E46696C74726174696F6E4475726174696F6E3A200073746F726167652E94
:2013800046696C74726174696F6E53746F703A200073746F726167652E46696C7472617438
:2013A000696F6E53746172743A200046696C7454300046696C745430004461746500446136
:2013C000746500446174650044617465004461746500446174650044617465004461746540
:2013E0000044617465004461746500446174650044617465004461746500446174650050A9
:20140000685049445753697A650050685049445753697A65004F72705049445753697A650E
:20142000004F72705049445753697A65005068504944506172616D7300506850494450616D
:2014400072616D73005068504944506172616D73005068504944506172616D73004F7270B6
:20146000504944506172616D73004F7270504944506172616D73004F727050494450617288
:20148000616D73004F7270504944506172616D730050756D70734D617855700050756D70F7
:2014A000734D617855700050756D70734D61785570005754656D704C6F77005754656D70C2
:2014C0004C6F770043686C54616E6B0043686C54616E6B0043686C54616E6B00704854617E
:2014E0006E6B00704854616E6B00704854616E6B0057536574506F696E7400575365745027
:201500006F696E74004F7270536574506F696E74004F7270536574506F696E740050685338
:201520006574506F696E74005068536574506F696E74004F7270504944004F7270504944BE
:201540000050685049440050685049440043686C50756D700043686C50756D7000506850E7
:20156000756D7000506850756D700046696C7450756D700046696C7450756D70004865614F
:20158000740048656174004D6F6465004D6F6465002C0043616C6962726174696F6E206334
:2015A0006F6D706C657465642E20436F65666673206172653A200020706F696E74732E2070
:2015C000506572666F726D696E672061206C696E6561722072656772657373696F6E2063F2
:2015E000616C6962726174696F6E00202D20002C0020706F696E747320726563656976656D
:20160000643A200050534943616C696220636F6D6D616E64202D200050534943616C696212
:201620000050534943616C6962002C0043616C6962726174696F6E20636F6D706C657465D6
:20164000642E20436F65666673206172653A200020706F696E74732E20506572666F726DEA
:20166000696E672061206C696E6561722072656772657373696F6E2063616C69627261744D
:20168000696F6E002C0043616C6962726174696F6E20636F6D706C657465642E20436F652E
:2016A000666673206172653A20003220706F696E74732E20506572666F726D696E67206162
:2016C0002073696D706C65206F66667365742063616C6962726174696F6E00202D20002C78
:2016E0000020706F696E74732072656365697665643A20004F727043616C696220636F6D01
:201700006D616E64202D20004F727043616C6962004F727043616C6962002C0043616C69FF
:2017200062726174696F6E20636F6D706C657465642E20436F65666673206172653A200087
:2017400020706F696E74732E20506572666F726D696E672061206C696E65617220726567EB
:2017600072657373696F6E2063616C6962726174696F6E002C0043616C6962726174696F98
:201780006E20636F6D706C657465642E20436F65666673206172653A20003220706F696EA0
:2017A00074732E20506572666F726D696E6720612073696D706C65206F6666736574206386
:2017C000616C6962726174696F6E00202D20002C0020706F696E747320726563656976658B
:2017E000643A2000506843616C696220636F6D6D616E64202D2000506843616C6962005049
:201800006843616C6962006465670045787465726E616C2054656D70657261747572653A2A
:20182000200054656D704578740054656D70457874004A736F6E2070617273654F626A65A5
:20184000637428292073756363657373202D20004A736F6E2070617273654F626A656374AE
:201860002829206661696C65643A20003C445331386232305F30204D61633D273078323802
:201880002C20307839322C20307832352C20307834312C20307830412C20307830302C2030
:2018A000307830302C2030784545273E00426172005053493A20006D56006D56202D2000EF
:2018C0004F72703A20006D56202D200050683A2000C2B04300445331386232305F303A20D9
:2018E000004572726F722067657474696E672074656D70657261747572652066726F6D200A
:20190000445331386232305F3000202D2000E606B60662060E06BA0565050E055B081A0822
:20192000D90798073D07140774093309F208B108860B350BE40A8D0A4D0A0D0ACC09D20DE5
:20194000850D400DF80CB00C680C200CD70B0E0FC00E780E200E5072657373656420535529
:20196000424D495420627574746F6E0070616765302E7661704855544572722E76616C3D75
:20198000300070616765302E7661704855544572722E76616C3D310070616765302E76610A
:2019A00043686C55544572722E76616C3D300070616765302E766143686C55544572722E77
:2019C00076616C3D310070616765302E76615053494572722E76616C3D30007061676530C4
:2019E0002E76615053494572722E76616C3D310070616765302E7661416369644C6576651F
:201A00006C2E76616C3D300070616765302E7661416369644C6576656C2E76616C3D310062
:201A200070616765302E766143686C4C6576656C2E76616C3D300070616765302E766143D2
:201A4000686C4C6576656C2E76616C3D31006252322E7069633D37006252322E7069633D8A
:201A6000380070616765312E76616252322E76616C006252312E7069633D37006252312E2E
:201A80007069633D380070616765312E76616252312E76616C006252302E7069633D3700AA
:201AA0006252302E7069633D380070616765312E76616252302E76616C0062486561742E29
:201AC0007069633D370062486561742E7069633D380070616765312E766162486561742EAE
:201AE00076616C006246696C742E7069633D37006246696C742E7069633D38007061676567
:201B0000312E76616246696C742E76616C0070334D6F64652E7478740070324D6F64652E22
:201B200074787400624D6F64652E7069633D3700624D6F64652E7069633D380074314D6F59
:201B400064652E7478740070314D6F64652E7478740070304D6F64652E747874004D414EEB
:201B600055004155544F0070616765312E7661624D6F64652E76616C007048546B2E74781B
:201B8000740070616765302E76617048546B2E747874006D696E00202F20004F7270546B57
:201BA0002E7478740070616765302E76614F7270546B2E747874006D696E00202F20007024
:201BC000616765332E703353746153746F2E7478740070616765322E703253746153746FEB
:201BE0002E7478740070616765312E703153746153746F2E7478740070616765302E703033
:201C000053746153746F2E7478740070616765302E766153746153746F2E747874006800B2
:201C20002F00502E7478740070616765302E76615053492E747874006200412E747874001A
:201C400070616765302E766141542E747874004300572E7478740070616765302E7661573E
:201C6000542E7478740043004F727053502E7478740070616765302E76614F727053502E09
:201C800074787400704853502E7478740070616765302E7661704853502E747874004F727F
:201CA000702E7478740070616765302E76614F72702E7478740070482E7478740070616717
:201CC00065302E766170482E7478740070334E6574572E7069633D360070334E6574572ED7
:201CE0007069633D350070324E6574572E7069633D360070324E6574572E7069633D35003D
:201D000070314E6574572E7069633D360070314E6574572E7069633D350070304E657457AE
:201D20002E7069633D360070304E6574572E7069633D350070616765312E7661624E657470
:201D4000572E76616C0070616765302E76614D4346572E747874004D432066773A207620B1
:201D600000727463350072746334007274633300005EBCE2613FDD83C29C7E20A3FD1F41F4
:201D8000009D23BE46DB65F88C11AF32CA57E974CDCCCC3D0AD7233C17B7D13877CC2B32F2
:201DA0009595E6241FB14F0A000020410000C84200401C4620BCBE4CCA1B0E5AAEC59D7402
:201DC0007B22436C656172223A317D00436C656172206572726F7273206576656E7400701F
:201DE00061676543616C6962732E7661436F6D6D616E642E747874007B2252656C6179225A
:201E00003A5B362C305D7D007B2252656C6179223A5B362C315D7D0052656C617920322094
:201E2000627574746F6E0076616252322E76616C007B2252656C6179223A5B322C305D7D1F
:201E4000007B2252656C6179223A5B322C315D7D0052656C6179203120627574746F6E00BE
:201E600076616252312E76616C007B2252656C6179223A5B312C305D7D007B2252656C615C
:201E800079223A5B312C315D7D0052656C6179203020627574746F6E0076616252302E7642
:201EA000616C007B2248656174223A307D007B2248656174223A317D0048454154206275EB
:201EC00074746F6E00766162486561742E76616C007B2246696C7450756D70223A307D003A
:201EE0007B2246696C7450756D70223A317D0046494C5420627574746F6E00766162466937
:201F00006C742E76616C007B224D6F6465223A307D007B224D6F6465223A317D004D4F4439
:201F20004520627574746F6E007661624D6F64652E76616C004E657874696F6E20703300C9
:201F40004E657874696F6E207032004E657874696F6E207031004E657874696F6E2070308F
:201F600000000020002300260029002C002F00320000010000030106010901050505050711
:201F80000508080808020202020A0A080804040404010101010101010103030303030303C3
:201FA00003040707070C0C0C0C0C0C0C0C0202020206060606060606060B0B0B0B0B0B0B20
:201FC0000B0A050A0A050A0A0404040A0102102020080810204010204080020102010804CF
:201FE00002010102040810204080804020100804020180040201804020100804020108044E
:20200000020101020408102040800102040810204080084004808040201020401000002172
:2020200000240027002A002D003000330001010000040107010A0100002200250028002BE7
:20204000002E003100340002010000050108010B0100000A0B02090C0D0E08070304010071
:2020600000000000000000000000000000000000000000000000000000000000001211102D
:20208000000000000000000000000000000000000000000000000000000000000000000040
:2020A000000002726573740062005B6D656D436865636B5D3A20005374617469632045748E
:2020C0006865726E657420636F6E666967757265642E2049503A20005374617274696E67A7
:2020E0002045746865726E65742077697468207374617469632049502E2E2E004574686534
:20210000726E65742044484350204F4B2E2049503A200044484350206661696C65642E20DA
:20212000436F6E74696E75696E6720776974686F75742045746865726E65742E0053746198
:202140007274696E672045746865726E657420444843502E2E2E002E204C6F6164696E6727
:202160002064656661756C742073657474696E67732C206E6F742066726F6D20656570728C
:202180006F6D0053746F72656420636F6E6669672076657273696F6E3A20002E204C6F6172
:2021A00064696E672073657474696E67732066726F6D20656570726F6D0053746F726564FF
:2021C00020636F6E6669672076657273696F6E3A2000C4B34BB311241FBECFEFD1E2DEBF54
:2021E000CDBF00E00CBF19E0A0E0B2E0ECE0F0EA01E00BBF02C007900D92AC3EB107D9F7E2
:2022000024E1ACEEB9E001C01D92AE3AB207E1F710E1CAEED0E100E006C021970109802F2C
:20222000FE010E94D5CBC93ED10780E00807A9F70E948DB90C94F4CF0C940000CF93DF93B0
:20224000E901DC018D919C91DC01ED91FC910280F381E02D199599838883892B29F090E06F
:2022600080E0DF91CF9108958AEF9FEFFACF4F925F926F927F928F929F92AF92BF92CF9298
:20228000DF92EF92FF92CF93DF93EC01CD8CDE8CEF8CF8A020E030E0A901C701B6010E9449
:2022A000BBC8882309F448C0898C9A8CAB8CBC8C20E030E0A901C501B4010E94BBC888232C
:2022C000D9F1688179818A819B810E94C0C820E030E04AE754E40E94DFCA20E030E040E705
:2022E00052E40E94DFCA2B013C0120E030E040E752E4C501B4010E94DFCA9B01AC01C301B4
:20230000B2010E9421C9A70196010E94DFCA20E030E048EC52E40E9421C9DF91CF91FF908F
:20232000EF90DF90CF90BF90AF909F908F907F906F905F904F90089560E070E080E89FEB79
:20234000ECCFFC018485882389F080859185A285B3854481558166817781840F951FA61F98
:20236000B71F80879187A287B38714860895FC01158616861786108A158A168A178A108EE5
:20238000108211821282138284819581A681B78180879187A287B3870895CF93DF93DB01A6
:2023A000FC01808191810097E1F012962C91129713964C911397342F3F77FC014381421734
:2023C000130671F7ED91FC911197EC0124962E0F3F1FE217F30729F0519149915417C9F398
:2023E000DFCFDF91CF910895DC0152969C915297915084E0989F900111245096ED91FC91B4
:20240000E20FF31F228133812115310579F041818081481758F481E0840F818386E0489FDA
:20242000200D311D11242115310521F460E070E08FEF0895B901892F8295807F840F089508
:20244000DF92EF92FF920F931F93CF93DF93EC017B01D12C688979898A89D816E0F484E03F
:20246000D89E80011124060F171FD80112966D917C916115710541F0D701ED91FC910280D7
:20248000F381E02DC7011995F8011382128210821182D394DFCF1A8A8FEF8C8BC617D707F5
:2024A00061F0D701ED91FC910280F381E02DC7011995D98BC88B84E08B8BDF91CF911F91BE
:2024C0000F91FF90EF90DF9008952F923F924F925F926F927F928F929F92AF92BF92CF9287
:2024E000DF92EF92FF920F931F93CF93DF93CDB7DEB766970FB6F894DEBF0FBECDBF5A8BEF
:20250000498B3C8B2B8B1C0169837A831E8A1D8A19861A861B861C861D821E821F82188615
:20252000412C512C320173016201D1018D909D90AD90BD901D01A5019401C701B6010E9487
:2025400073CA6B017C01E981FA8181919191A191B191FA83E9838D879E87AF87B88B9C0190
:20256000AD01C301B2010E9473CA2B013C012D853E854F855889C501B4010E9421C99B0121
:20258000AC016D817E818F8198850E9473CA6D837E838F839887A5019401C501B4010E941B
:2025A00021C99B01AC0169857A858B859C850E9473CA69877A878B879C878D899E890196F1
:2025C0009E8B8D8B0817190709F0AFCFB801110F880B990B0E94C2C84B015C01AC019B01D6
:2025E000C701B6010E94DFCA6B017C01A5019401C301B2010E94DFCA69837A838B839C8315
:20260000A50194016D817E818F8198850E94DFCA2B013C0129813A814B815C81C701B60124
:202620000E9421C99B01AC01C301B2010E9472CA2B013C01A501940169857A858B859C85AE
:202640000E94DFCA4B015C01A7019601C701B6010E9421C99B01AC01C501B4010E9472CA9A
:202660009B01AC01C301B2010E94DFCAA989BA896D937D938D939C931397A70196010E94F0
:2026800021C99B01AC0169817A818B819C810E9472CAEB89FC896083718382839383669634
:2026A0000FB6F894DEBF0FBECDBFDF91CF911F910F91FF90EF90DF90CF90BF90AF909F901A
:2026C0008F907F906F905F904F903F902F900895FC0180E092E0918380831282148213822F
:2026E000CF010596968B858B178A84E0808F8FEF818F168E878F089521EC34E0FC01318373
:202700002083FB014089518962897389FC0142835383648375830895FC01848995890895B7
:20272000CF92DF92EF92FF920F931F93CF93DF937C016B018A01FC01C081D1814F3F5105A5
:2027400009F0B0F4E881F9810480F581E02D4B5F5F4FCE011995009759F0FC010383DF914A
:20276000CF911F910F91FF90EF90DF90CF900895E881F9810280F381E02DB601CE01199516
:2027800081E0F701828390E080E0E9CFDB01ED91FC9111970280F381E02DBC01CD01199489
:2027A0000F931F93CF93DF93EC01088119818B819C81009749F0FC01208131813C832B832B
:2027C000B8010E94C613F3CF68817981CE010596DF91CF911F910F910C942012FC017687CA
:2027E00065870895DC01ED91FC91068CF78DE02D199591E089270895862F089581E0862779
:20280000089521E0FC018485883008F020E0822F0895FC01848595850895DC01ED91FC9171
:20282000048CF58DE02D199490E080E00895FC018485883010F40C946DA990E080E008957A
:20284000CF92DF92EF92FF920F931F93CF93DF93EC01E885F985309739F1199508811981D2
:202860002A813B81601771078207930700F50095109520953095600F711F821F931F0C8157
:202880001D812E813F8168017901C61AD70AE80AF90AC701B601DF91CF911F910F91FF9064
:2028A000EF90DF90CF9008950E94BE97D7CF601B710B820B930BE3CFCF93DF93EC014C832D
:2028C0005D836E837F83E885F985309741F01995688379838A839B83DF91CF9108950E9473
:2028E000BE97F6CF2F923F924F925F926F927F928F929F92AF92BF92CF92DF92EF92FF9280
:202900000F931F93CF93DF9300D01F92CDB7DEB79A8389836B015C834B8319012701380138
:202920000E94BE974B015C01D1011D921C92EB81FC81EF2B89F10E94BE97681979098A09BE
:202940009B09641575058605970530F5A981BA818D919C91DC01ED91FC910288F389E02DE9
:202960004B815C81B6011995181619069CF160E070E0CB010E948B97A981BA818D919C919F
:20298000DC01ED91FC910688F789E02D19958111CECF8BEF9FEF07C0F10180819181892BCF
:2029A00051F190E080E00F900F900F900F90DF91CF911F910F91FF90EF90DF90CF90BF903E
:2029C000AF909F908F907F906F905F904F903F902F900895C80ED91ED1012D913C91119791
:2029E000280F391F2D933C93EB81FC81E81BF90BFC83EB839CCF8CEF9FEFD5CFCF92DF92F2
:202A0000EF92FF920F931F93CF93DF93CDB7DEB7AF970FB6F894DEBF0FBECDBF8C016B01DD
:202A20007A0181EC94E09A8389831B821C821D821E821C861B8648EE53E060E070E04D8787
:202A40005E876F87788B23E634E03A872987988F8F8B198E1A8E1B8E1C8E28E029A39BA711
:202A60008AA71CA61DA61EA61FA6D8011C968C91883060F40E948AA9882321F0F8018485D0
:202A80000E94D9AD88E0D8011C968C9380916C0D90916D0DA0916E0DB0916F0D8EA39FA3FB
:202AA000A8A7B9A78B839C83AD83BE8318861F82AE01465D5F4FB601CE0101960E94BE7895
:202AC0000097C1F0D801ED91FC910684F785E02D81EC94E09DA38CA38CA59DA5AEA5BFA53D
:202AE0008EA39FA3A8A7B9A7A701BE016C5D7F4FC8011995AF960FB6F894DEBF0FBECDBFB3
:202B0000DF91CF911F910F91FF90EF90DF90CF900895CB010C94C0C4FC0186A10E94F495DD
:202B200021E0019709F020E0822F0895CF93DF93EC018FA18F3F09F18A3AB1F4CE010E9422
:202B400037119B01AC0169A17AA18BA19CA10E9472CAC1E020E030E040EA50E40E9487CB75
:202B600018163CF0C0E005C00E94F495C1E00197C9F78C2FDF91CF910895C1E0FACFEF925F
:202B8000FF920F931F93CF93DF93EC017B018A01CA010E940AC6F982E8821B830A839D831B
:202BA0008C83CE01DF91CF911F910F91FF90EF90089583EB9EE00E94A1111092C002109226
:202BC000C1021092C2021092C3020E94BE9760936C0270936D0280936E0290936F02809173
:202BE000750E811104C08BE39EE00E94599C81E08093750E8093500208958CED9EE00E94E7
:202C0000A1111092BC021092BD021092BE021092BF020E94BE9760936802709369028093A7
:202C20006A0290936B028091B10E811104C087E79EE00E94599C81E08093B10E80934F0258
:202C400008950F931F930E94BE970091F20D1091F30D2091F40D3091F50D601B710B820B62
:202C6000930B693E73408105910530F08FE396E11F910F910C94786A1F910F910895BF9227
:202C8000CF92DF92EF92FF920F931F93CF93DF9300D000D000D0CDB7DEB70E94869F0E9436
:202CA000CC9FB0902B120E94CFA0182F092F0E94D7A0D82EC92E0E94869F0E94CC9FE09042
:202CC0002F120E94869F0E94CC9FF09030120E94C5A01F92BF920F931F93CF92DF921F923D
:202CE000EF921F92FF929F938F9381EE94E09F938F9381E19AE09F938F930E941ECD61E187
:202D00007AE08DEB9CE00E949F948AE099E10E94AB6BBE016F5F7F4F82E092E00E940F6BA9
:202D20000FB6F894DEBF0FBECDBF811105C040E050E06EEF72EC40C06A8170E0762F66277D
:202D4000770F770F770F298148E0249F90011124262B372B809102028031E1F468856623C2
:202D6000C9F070E08F81AB01481B5109CA019695982F8827979587950E94C1CBCB0180970C
:202D8000B90153E0660F771F5A95E1F760789C01260F371F213854EE35074CF2B901330F63
:202DA000880B990B0E94C2C820E030E040E05CE30E9421C9AB01BC0180E39EE00E94469EE5
:202DC0006AE080E39EE00E94639D6093C4027093C5028093C6029093C70220E030E04EEF8F
:202DE00052EC0E94BBC8811185C181EE98E10E94AB6B6DEF7DE08DEB9CE00E94A19483E011
:202E00000E94A96CBC01990F880B990B0E94C2C826EA3BE944EC50E40E9421C920E03CEFE4
:202E20004FE756E40E94DFCA6B017C01905820918C0230918D0240918E0250918F020E9402
:202E400021C9209190023091910240919202509193020E9473CAAB01BC014093C80250934E
:202E6000C9026093CA027093CB0288E29EE00E94469E62E088E29EE00E94639D6093C80201
:202E80007093C9028093CA029093CB028CEC98E10E94AB6BA701960160E070E080E290E447
:202EA0000E9472CA20E030E04AE754E40E9421C90E94D46B86EC98E10E94AB6B6091C802F0
:202EC0007091C9028091CA029091CB020E94D46B6DEF7DE08DEB9CE00E94A19480E00E94F4
:202EE000A96CBC01990F880B990B0E94C2C826EA3BE944EC50E40E9421C920E03CEF4FE770
:202F000056E40E94DFCA6B017C01209194023091950240919602509197020E9421C9209184
:202F200098023091990240919A0250919B020E9473CAAB01BC014093CC025093CD02609322
:202F4000CE027093CF0280E29EE00E94469E62E080E29EE00E94639D6093CC027093CD0210
:202F60008093CE029093CF0280EC98E10E94AB6BA701960160E070E080E290E40E9472CA5A
:202F800020E030E04AE754E40E9421C90E94D46B8AEB98E10E94AB6B6091CC027091CD0216
:202FA0008091CE029091CF020E94D46B87EB98E10E94AB6B6DEF7DE08DEB9CE00E94A19436
:202FC00080917B00886080937B0081E480937C0080917A00806480937A0080917A0086FDF1
:202FE000FCCF6091780070917900072E000C880B990B0E94C2C82FE832EC45EF5CE30E9435
:2030000021C920E030E040E05FE30E9472CA20E030E040EA50E40E9421C920E030E040E844
:203020005EE30E9421C96B017C0120919C0230919D0240919E0250919F020E9421C92091FB
:20304000A0023091A1024091A2025091A3020E9473CAAB01BC014093D0025093D1026093D9
:20306000D2027093D30288E19EE00E94469E63E088E19EE00E94639D6093D0027093D102D0
:203080008093D2029093D30281EB98E10E94AB6BC701B6010E94D46B6DEF74E08DEB9CE0B0
:2030A0000E949F946091D0027091D1028091D2029091D3020E94D46B8DEA98E10E94AB6B40
:2030C0006DEF7DE08DEB9CE00E94A19487E69EE10E94786A29960FB6F894DEBF0FBECDBFF6
:2030E000DF91CF911F910F91FF90EF90DF90CF90BF90089585ED98E10E94AB6B6091C4028E
:203100007091C5028091C6029091C7020E94D46B81ED98E16CCECB010C9424C4CB01BA0147
:203120000C94EBCBDA01E0912A12F0E0FE2FEE27E60FF71F90E0982F8827A901BD018E0FA9
:203140009F1F0C9486A744E050E0BC018FE090E00C94A8A808958CBD9DBD0895CF92DF9255
:20316000EF92FF921F93CF93DF93EC017B016A018C85883048F40E948AA9882319F08C8544
:203180000E94D9AD88E08C87F70182819381A481B5810097A105B10551F490E080E0DF91AA
:2031A000CF911F91FF90EF90DF90CF9008958F3F9F4FAF4FBF4F89F370E060E081E20E94AD
:2031C000F9AE182F8C87883040F780E591E00E94AB18A7014E5F5F4F24E030E06CE070E011
:2031E000812F0E94FCA9B601812F0E94CCAA64E070E0812F0E9430AC0E94BE976B017C01B7
:203200008C850E948AA9873111F18C3101F1882321F20E94BE97AB01BC014C195D096E09FF
:203220007F098D859E85B0E0A0E084179507A607B70738F061E070E080E090E00E948B97D2
:20324000DFCF8C850E94E7AD88E08C87A6CF81E090E0A5CFCF93DF93EC0181EC94E0998386
:2032600088831A821B821C821D8280E591E00E94AB18BE016E5F7F4F44E050E08FE090E005
:203280000E9486A7CE01DF91CF9108957F928F929F92AF92BF92CF92DF92EF92FF920F93A8
:2032A0001F93CF93DF93CDB7DEB7A6970FB6F894DEBF0FBECDBF8C01762E942E852E20E243
:2032C000A22ECE0101967C01DC01EA2D1D92EA95E9F76801F3E4CF0ED11C81EC94E09AA311
:2032E00089A38FEF8BA38CA38DA38EA343E450E0BE016F5D7F4FC6010E94F8AA019609F417
:20330000BFC081E089838A8386E0B82EBB821C82D80114966D917D918D919C9117970E9463
:20332000DDCB6D837E838F83988789869A8680E890E09C878B874CE150E0B701C6010E9409
:2033400090AAFE0137968AE1DF011D928A95E9F74801B8E08B0E911CF401D70101900D924A
:20336000BA94E1F740E150E0B701C6010E9490AAF7011192AA94E9F796E0A92EB12C40E276
:2033800050E0B701C6010E9490AAF1E0AF1AB108B1F783E6898392E89A8393E59B838C83F6
:2033A00085E38D8381E08E837F829DE3988797E099878A8786E0F401DE011B9601900D92C0
:2033C0008A95E1F78CE0898B8A8B61E075E0CE0143960E9417CDD8011B966C91CE01499668
:2033E0000E947171F8016485CE014B960E947171D8011D966C91CE014D960E9471714EE145
:2034000050E0B701C6010E9490AAB3E07B121EC082E3898384E08A83F80196859B839785F3
:203420009C8390899D8391899E8396E39F838887828D8987838D8A87848D8B87858D8C87C7
:203440004CE050E0B701C6010E9490AA87E3898386E08A8391E09B8393E09C838D838FE02C
:203460008E838AE38F838BE388878FEF898749E050E0B701C6010E9490AAC6010E9407B0DD
:20348000A6960FB6F894DEBF0FBECDBFDF91CF911F910F91FF90EF90DF90CF90BF90AF901F
:2034A0009F908F907F900895DC0160E070E0CB01109709F40895FD0101900020E9F7319741
:2034C000EA1BFB0BB9F3BF01CD0108950F931F93CF93DF93EC01B0E0A0E0E881F9818D0174
:2034E0000F5F1F4FCB018E1B9F0B8017910758F1822F8F7797E056954795379527959A95AD
:20350000D1F7211531054105510509F08068EA0FFB1F8083211531054105510569F4888176
:203520009981800F911F9983888390E080E0DF91CF911F910F910895D8010430110569F6FC
:203540008EEF9FEFF4CF8FEF9FEFF1CFEF92FF920F931F93CF93DF931F921F92CDB7DEB71C
:20356000680F791FE4E0220F331FEA95E1F768177907F9F07A018C01FC012193FA83E98314
:2035800020E030E0A901CE0101960E94661A009739F429813A81201B310BF70131832083FA
:2035A0000F900F90DF91CF911F910F91FF90EF9008958FEF9FEFF4CF4F925F926F927F924F
:2035C0009F92AF92BF92CF92DF92EF92FF920F931F93CF93DF936C018A01DA011D921D92EB
:2035E0001D921C921397DC01ED91FC917B01EE1AFF0A5F01D0E0C0E0412C512C32014394AB
:203600002196EC16FD06E0F1C530D105E1F1D5019D905D01A92DAF77B0E0A30192010E94BA
:203620002ECAD8012D913D914D915C911397260F371F481F591F2D933D934D935C93139745
:2036400087E0440C551C661C771C8A95D1F797FCD7CFEC0FFD1FD601ED93FC9390E080E040
:20366000DF91CF911F910F91FF90EF90DF90CF90BF90AF909F907F906F905F904F90089518
:203680008FEF9FEFEDCF8EEF9FEFEACFFA01603871058105910538F481E090E09183808365
:2036A00090E080E00895611520E472078105910518F482E090E0F2CF6F3F2FEF72072FE19A
:2036C0008207910518F483E090E0E8CF6F3F7F4F8F4F9F4018F484E090E0E0CF1182108248
:2036E0008EEF9FEF0895FC01A081B181A617B70729F4DA011C928FEF9FEF08958C91DA0110
:203700008C938081918101969183808390E080E00895FC01A081B1816A1B7B0B62307105F9
:2037200068F05C93A081B18111964C938081918102969183808390E080E008958FEF9FEF2E
:203740000895CF93DF93DC01ED91FC9111976E1B7F0B6230710540F4EA01198218828FEF7B
:203760009FEFDF91CF910895208130E0322F22279181290F311DEA01398328833296ED93C1
:20378000FC9390E080E0EDCFAF92BF92CF92DF92EF92FF920F931F93CF93DF9300D000D0D0
:2037A0001F92CDB7DEB75A0169019E838D837C01E60EF71E1F82AE01495F5F4FB701CE0196
:2037C00005960E94731B009749F52F81822F807F90E034E0959587953A95E1F78A159B0539
:2037E00071F523FB222720F9F6012083AE014F5F5F4FB701CE0105960E94DC1A009771F488
:2038000089819A81AB81BC810297A105B105D1F4A801B701CE0105960E94A11B27960FB6B5
:20382000F894DEBF0FBECDBFDF91CF911F910F91FF90EF90DF90CF90BF90AF90089587EF69
:203840009FEFECCF88EF9FEFE9CF0F931F93CF93DF93EC012115310591F088819981681BBA
:20386000790B6217730790F08901BA01A9010E94F3CC28813981200F311F3983288390E048
:2038800080E0DF91CF911F910F9108958FEF9FEFF8CFCF92DF92EF92FF920F931F93CF939E
:2038A000DF93EC018B0169017A01A9010E94891B009771F49601A701B801CE01DF91CF91B5
:2038C0001F910F91FF90EF90DF90CF900C94251CDF91CF911F910F91FF90EF90DF90CF90DF
:2038E0000895CF93CFB7F8948091C10A811127C0E0EBFFE18491E1E0F0E29491E82FF0E003
:20390000EE0FFF1FE35EFF4DA591B491EC91E92321F461E085E30E941D9661E085E30E949D
:203920002A978CB580618CBD8CB580648CBD61E084E30E942A9761E083E30E942A978091C7
:20394000C10A8F5F8093C10ACFBFCF9108958EBD00000DB407FEFDCF8EB508957F928F9256
:203960009F92AF92BF92CF92DF92EF92FF920F931F93CF93DF9300D000D01F92CDB7DEB70E
:20398000C982EA820B838C836D834E832F8380910D0B882309F4A4C0ACB40E94711C8CB55B
:2039A0008F7D8CBD8CB5837F8CBDCE0101967C0100E080E5982E98E2C92E24E1B22E3AE0C8
:2039C000D32E8981002319F00130A1F48A816C2D0E94A1CB282F892F2295220F220F207C74
:2039E0006B2D0E94A1CB182F892F1295110F107E210F0FC08B81023009F448C0033089F4DB
:203A00008C816B2D0E94A1CB282F892F2295220F207E6D2D0E94A1CB8295807F182F120F38
:203A20003BC0043081F58D8010E0782C710EF70171927F0161E088E40E941D9682E1800F52
:203A40000E94A71C872D0E94A71C60E088E40E941D960F5F073009F0B4CFACBC80E0279641
:203A60000FB6F894DEBF0FBECDBFDF91CF911F910F91FF90EF90DF90CF90BF90AF909F9046
:203A80008F907F900895053049F48E816D2D0E94A1CB182F1295107F892EC7CF063029F613
:203AA0004F81842F692D0E94A1CB282F892F2795222727956C2D0E94A1CB382F842F0E94AC
:203AC000A1CB892F6B2D0E94A1CB182F892F3295330F330F307C1295110F107E130F88CF58
:203AE0008FEFBDCFDC0180E0615090F09D919827E92FEF70F0E0E059F24E2491E92FE2955D
:203B0000EF70F0E0E058F24EE491822F8E27ECCF0895DC012C911196ED91FC91F8948181F1
:203B2000822B81839281322F30959323928387E090E00197F1F781818323818383E290E0F8
:203B40000197F1F790817894EFECF0E03197F1F7922381E009F480E00895FC0190810180CE
:203B6000F281E02D292F209560FF14C0F8948281822382838181892B8183A3E2B0E01197D5
:203B8000F1F78281982B9283789487ED90E00197F1F70895F8948281822382838181892B66
:203BA0008183AFEFB0E01197F1F78281982B928378948FE090E0EBCFDF92EF92FF920F939E
:203BC0001F93CF93DF93EC01D62EE42E08E010E0FF24F39461E08D2D8F2109F460E0CE0123
:203BE0000E94AD1DFF0C01501109A1F7E11010C0F894E981FA819181888180958923818339
:203C0000E981FA81928188818095892382837894DF91CF911F910F91FF90EF90DF90089597
:203C2000EF92FF920F931F93CF93DF938C017B0140E065E50E94DC1DE70188E0E80EF11CE9
:203C4000699140E0C8010E94DC1DCE15DF05C1F7DF91CF911F910F91FF90EF900895FC019F
:203C600090810180F281E02DF8948181292F20958223818378943DE743E050E0315029F1D0
:203C8000DA011197F1F780818923C1F3F8948281822382838181892B81837894ABE7B7E030
:203CA0001197F1F7F894818182238183A3E1B1E01197F1F78081982381E009F080E0789416
:203CC000E3E6F6E03197F1F7089580E00895CF92DF92EF92FF928091A9109091AA100E94D0
:203CE0002F1E40E06CEC8091A9109091AA100E94DC1D4091A01064E48091A9109091AA1051
:203D00000E94DC1D8091A410882309F1E091A3108091A510882319F18091A01081111FC0CD
:203D20000E94BE976B017C018091A9109091AA100E94891D813059F00E94BE976C197D09BA
:203D40008E099F096E3E72408105910568F381E296E1FF90EF90DF90CF900C94786AE950DE
:203D60008EEE92E0E33038F4F0E0EE0FFF1FE15BFC4F808191816C01990FEE08FF0880916E
:203D8000A110882329F060E08091A2100E941D96C701B6010E948B978091A1108823B9F2FB
:203DA00061E08091A2100E941D96D1CF0F931F93CF93DF9300D000D000D0CDB7DEB76CE607
:203DC00078E18AE990E10E940593E091A910F091AA101386158614861286118610861782DB
:203DE00016821582148213821092A7101092A81011E0BE016F5F7F4F8091A9109091AA10C5
:203E00000E948F6A882309F45FC067E0CE0101960E94721D98858913ECCF8091A7108F5F38
:203E20008093A7108981883231F008F044C0803111F08232F1F68091A8108F5F8093A81008
:203E40008091A010811128C08091A9109091AA100E942F1EBE016F5F7F4F8091A91090914D
:203E6000AA100E94101E40E064EB8091A9109091AA100E94DC1D8091A9109091AA100E94C2
:203E8000891D082F8091A9109091AA100E942F1E011102C01093A0108981803199F0CE0177
:203EA00001960E94816B9091A310981708F0A1CF8093A3109ECF8B3309F4BDCF823409F0C9
:203EC00098CFB9CF8CE0EFCF80910202803109F46FC0BE016F5F7F4F82E092E00E940F6B8C
:203EE000882309F465C08D818F3709F461C08FE78D838091A9109091AA100E942F1E62E0A7
:203F000072E08091A9109091AA100E94101E40E06EE48091A9109091AA100E94DC1D40E008
:203F20006B818091A9109091AA100E94DC1D40E06C818091A9109091AA100E94DC1D8091F7
:203F40000202803141F040E06D818091A9109091AA100E94DC1D8091A9109091AA102091D7
:203F6000A610222319F10E942F1E882309F162E072E08091A9109091AA100E94101E4091CE
:203F8000A01068E48091A9109091AA100E94DC1D8091A01081114EC064E170E080E090E01F
:203FA0000E948B978091A9109091AA100E942F1E8CE08093A3108091A710823008F45FC0E2
:203FC00010E08091A710181708F059C08091A3108C3009F454C0E091A910F091AA1013865A
:203FE000158614861286118610861782168215821482138200E0BE016F5F7F4F8091A910CF
:204000009091AA100E948F6A882329F0101761F10F5F101780F78981803179F1CE01019656
:204020000E94816B9091A310981710F48093A3101F5FC7CF8091A110882329F060E08091BA
:20404000A2100E941D9664E170E080E090E00E948B978091A110882309F4A4CF61E0809101
:20406000A2100E941D969ECF67E0CE0101960E94721D98858913CCCFCECF8CE0D3CF10924D
:20408000A41087E69EE10E94786A29960FB6F894DEBF0FBECDBFDF91CF911F910F91089539
:2040A0000F931F93CF93DF93EC018EA10E94F495019711F560E08DA10E941D960E94BE9739
:2040C000AB01BC0188819981AA81BB810D851E852F853889801B910BA20BB30B840F951F5A
:2040E000A61FB71F88839983AA83BB8381E0DF91CF911F910F91089580E0F9CF0F931F93F9
:20410000CF93DF93EC018EA10E94F4950197F1F40E94BE97AB01BC0188819981AA81BB811D
:204120000D851E852F853889801B910BA20BB30B840F951FA61FB71F88839983AA83BB83BF
:204140000E94BE976D877E878F87988B88859985AA85BB850097A105B10571F048815981A5
:204160006A817B81481759076A077B0728F0CE010E94502081E08C87CE010E94961581118B
:2041800003C0CE010E94502088A58F3F59F00E94F495892B39F4CE01DF91CF911F910F913C
:2041A0000C945020DF91CF911F910F9108951F93CF93DF93EC018EA10E94F495892B31F090
:2041C00010E0812FDF91CF911F9108958C858111F7CFCE010E949615182F882389F388A502
:2041E0008F3F79F461E08DA10E941D960E94BE97698B7A8B8B8B9C8B6D877E878F87988B61
:20420000E0CF0E94F4950197D9F6ECCFCF92DF92EF92FF920F931F9385E09FE00E948C1543
:20422000882309F468C08091750E882309F463C08BE39EE00E94F79A0E94BE97C0906C027B
:20424000D0906D02E0906E02F0906F0200916402109165022091660230916702AB01BC0113
:204260004C195D096E097F09041715072607370770F4D701C601800F911FA21FB31F8093EA
:204280006C0290936D02A0936E02B0936F02C090C002D090C102E090C202F090C3020E9477
:2042A000BE9700916C0210916D0220916E0230916F02601B710B820B930B0E94C0C89B015F
:2042C000AC01C701B6010E94BBC887FF0AC083EB9EE01F910F91FF90EF90DF90CF900C9485
:2042E000502083EB9EE01F910F91FF90EF90DF90CF900C94D7201F910F91FF90EF90DF90D2
:20430000CF900895CF92DF92EF92FF920F931F9385E09FE00E948C15882309F468C0809161
:20432000B10E882309F463C087E79EE00E94F79A0E94BE97C0906802D0906902E0906A027C
:20434000F0906B0200916002109161022091620230916302AB01BC014C195D096E097F090B
:20436000041715072607370770F4D701C601800F911FA21FB31F8093680290936902A09388
:204380006A02B0936B02C090BC02D090BD02E090BE02F090BF020E94BE97009168021091D0
:2043A000690220916A0230916B02601B710B820B930B0E94C0C89B01AC01C701B6010E9491
:2043C000BBC887FF0AC08CED9EE01F910F91FF90EF90DF90CF900C9450208CED9EE01F9130
:2043E0000F91FF90EF90DF90CF900C94D7201F910F91FF90EF90DF90CF9008956F3FA9F09A
:20440000E62FE295EF7044E0E49F90011124DC01ED91FC91E20FF31F6F7082819381B6E0CD
:204420006B9F800D911D1124089590E080E00895CF93C82FCB016C2F45960E94FE212FEF7E
:20444000009711F0FC012581BC018C2F922FCF910895982F80336CF08A3324F08F3524F06C
:204460008B3724F481E0089581341CF081E09B350CF080E00895FC018485811114C0A781E5
:20448000B085818592852FEF3FEFA817B90730F4CD010196908787832C9130E037FD20E054
:2044A000238781E08487838508951F93CF93DF93EC01162F0E943B22811306C01C8681E02D
:2044C000DF91CF911F91089580E0FACF0F931F93CF93DF938C01EB018991882369F0C8010E
:2044E0000E943B22882379F0FE013197908198130DC0F8011486F0CF90E080E0DF91CF9167
:204500001F910F91089582E090E0F8CF83E090E0F5CFCF93DF93EC01CE010E943B228B3034
:204520004CF489305CF4882359F081E08E8390E080E00BC08D3011F08032B9F71C86ECCFB4
:204540008E81811105C081E090E0DF91CF91089582E090E0FACFFC01A281B38180819181B5
:2045600030E020E0A817B90738F4CD010196938382836C9321E030E084819581820F931F92
:20458000958384830895CF93DF93FC0182819381EB01460F571FA281B38120813181A2175D
:2045A000B30758F4C417D50741F02991BD016F5F7F4F738362832C93EECFA81BB90B848116
:2045C0009581A80FB91FB583A483DF91CF9108958F929F92AF92BF92CF92DF92EF92FF92A2
:2045E0000F931F93CF93DF93CDB7DEB766970FB6F894DEBF0FBECDBF6C018E01095E1F4F65
:2046000078018AE0882E912CA12CB12CCB01BA01A50194010E9441CA942F852F605DF801FE
:2046200062938F01A901692F782F411551056105710561F7A7014E1B5F0BBF01C6010E9488
:20464000C32266960FB6F894DEBF0FBECDBFDF91CF911F910F91FF90EF90DF90CF90BF90E7
:20466000AF909F908F900895FB0101900020E9F73197AF01461B570B0C94C322CF92DF92F1
:20468000EF92FF920F931F93CF93DF938C016B017A0162E20E94AB22E601EC0CFD1CEC16BF
:2046A000FD0699F06991E8E0F5E0D480DD20C9F0329683816813F9CF6CE5C8010E94AB2235
:2046C0006D2DC8010E94AB22EACF62E2C801DF91CF911F910F91FF90EF90DF90CF900C94A6
:2046E000AB226111EECF6BE175E0C8010E943423D6CFFC01AC014C5F5F4F91E081E021912F
:20470000222319F080E02F3F09F090E04E175F07B1F7811103C081E08927089580E00895A1
:20472000CF93DF931F921F92CDB7DEB72091AA143091AB142115310511F42EEA34E1CE01CE
:204740000196821B930B0F900F90DF91CF91089560913312709134124DEB50E08EE492E013
:204760000C94F7C9CF92DF92EF92FF920F931F93CF93DF93CDB7DEB769970FB6F894DEBFC6
:204780000FBECDBF62E17EE08E010F5F1F4FC8010E943EB08D85883008F086C2198B088B1A
:2047A00088E893E1A0E0B0E08A8B9B8BAC8BBD8BC8010E94C5A9882309F46DC2C8010E9430
:2047C0006491892BA9F350E040E062E275E0CE0140960E942799882309F485C248E255E056
:2047E00066E376E0CE0140960E942799882309F47AC248E255E06BE275E0CE0140960E94E7
:204800002799882309F45EC0CE0140960E94D39848E255E06FE275E0CE0140960E94279954
:20482000882309F441C0CE0140960E94D3986B018B01CB010197069750F4CE0140960E9499
:20484000D398F601E25BFD4FEB54FF4F6083C6010797049750F4CE0140960E94D398F60110
:20486000E25BFD4FE156FF4F6083C6010B97049750F4CE0140960E94D398F601E25BFD4FCD
:20488000E156FF4F60838FE0C81AD108E4E0CE16D10408F0BDCFCE0140960E94D398F801DA
:2048A000E351FD4F6083B4CF86E599E10E94AB6B8DEB9CE00E942C9481E080930A030E94FC
:2048C000A823FFCF62E375E0C8010E94309462E475E0C8010E943094C8010E942C946EE42F
:2048E000E62E69E1F62EF701659174918AE29AE00E9403C66AE27AE0C8010E949F94F2E0DC
:20490000EF0EF11C86E5E81689E1F80661F75EE3E52E59E1F52EF701659174918AE29AE0DA
:204920000E9403C66AE27AE0C8010E949F94E2E0EE0EF11CF4E4EF16F9E1FF0661F740E1C8
:2049400050E060910403C8010E944F94F701659174918AE29AE00E9403C66AE27AE0C8012E
:204960000E949F9440E150E060910503C8010E944F94E6E4F9E1659174918AE29AE00E94A3
:2049800003C66AE27AE0C8010E949F9440E150E060910603C8010E944F94E8E4F9E16591D5
:2049A00074918AE29AE00E9403C66AE27AE0C8010E949F9440E150E060910703C8010E94A6
:2049C0004F94EAE4F9E1659174918AE29AE00E9403C66AE27AE0C8010E949F9440E150E06B
:2049E00060910803C8010E944F94ECE4F9E1659174918AE29AE00E9403C66AE27AE0C80108
:204A00000E949F9440E150E060910903C8010E944F9430E3E32E39E1F32E48E3C42E49E17F
:204A2000D42EF701659174918AE29AE00E9403C66AE27AE0C8010E949F9482E0E80EF11C87
:204A4000CE14DF0471F74AE050E06091F402C8010E944F94E8E3F9E1659174918AE29AE014
:204A60000E9403C66AE27AE0C8010E949F944AE050E06091F502C8010E944F94EAE3F9E150
:204A8000659174918AE29AE00E9403C66AE27AE0C8010E949F944AE050E06091F602C8017A
:204AA0000E944F94ECE3F9E1659174918AE29AE00E9403C66AE27AE0C8010E949F944AE00E
:204AC00050E06091F702C8010E944F94E8E2F9E1659174918AE29AE00E9403C66AE27AE0D8
:204AE000C8010E949F944AE050E06091F802C8010E944F94EAE2F9E1659174918AE29AE0FE
:204B00000E9403C66AE27AE0C8010E949F944AE050E06091F902C8010E944F94ECE2F9E1AA
:204B2000659174918AE29AE00E9403C66AE27AE0C8010E949F944AE050E06091FA02C801D5
:204B40000E944F94EEE2F9E1659174918AE29AE00E9403C66AE27AE0C8010E949F944AE06C
:204B600050E06091FB02C8010E944F94ECE1F9E1659174918AE29AE00E9403C66AE27AE030
:204B8000C8010E949F944AE050E06091FC02C8010E944F94EEE1F9E1659174918AE29AE056
:204BA0000E9403C66AE27AE0C8010E949F944AE050E06091FD02C8010E944F94E0E2F9E112
:204BC000659174918AE29AE00E9403C66AE27AE0C8010E949F944AE050E06091FE02C80131
:204BE0000E944F94E2E2F9E1659174918AE29AE00E9403C66AE27AE0C8010E949F944AE0D8
:204C000050E06091FF02C8010E944F94E4E2F9E1659174918AE29AE00E9403C66AE27AE092
:204C2000C8010E949F942EE0E22E29E1F22EF701659174918AE29AE00E9403C66AE27AE0A4
:204C4000C8010E949F94E2E0EE0EF11CFCE1EF16F9E1FF0661F7E6E2F9E1659174918AE2C9
:204C60009AE00E9403C66AE27AE0C8010E949F9480910A036AE575E0811125C0C8010E9467
:204C80009F9468E675E0C8010E949F946AE575E0C8010E949F9461E070E080E090E00E945B
:204CA0008B97C8010E9443AE69960FB6F894DEBF0FBECDBFDF91CF911F910F91FF90EF9002
:204CC000DF90CF900895C8010E949F9467E975E0C8010E949F9461E675E0C8010E949F944E
:204CE00062EC75E0D0CF62E375E0C8010E94309462E475E0C8010E943094C8010E942C94B4
:204D00009EE4E92E99E1F92EF701659174918AE29AE00E9403C66AE27AE0C8010E949F94D1
:204D200082E0E80EF11CE6E5EE16E9E1FE0661F76EEF75E0C8010E949F946AE575E0C8015C
:204D40000E949F9466E276E0C8010E949F946AE575E0C8010E949F946DE276E0C8010E94F0
:204D60009F944AE050E06091F402C8010E944F9485EFE82E82E0F82E69EE76E0C8010E9447
:204D80009F94F70161917F014AE050E0C8010E944F94F8EFEF16F2E0FF0671F765E376E005
:204DA000C8010E949F946AE575E0C8010E949F946CE376E0C8010E949F946AE575E0C80163
:204DC0000E949F946BE776E0C8010E949F9464E876E0C8010E949F946CEA76E0C8010E9461
:204DE000309459CF2F923F924F925F926F927F928F929F92AF92BF92CF92DF92EF92FF9289
:204E00000F931F93CF93DF93CDB7DEB7ED970FB6F894DEBF0FBECDBF6EEC76E08DEB9CE0E2
:204E20000E949F940E94037081110E94F66F809145109091461090935A1080935910609118
:204E400047107091481040914F1050915010DC01ED91FC9161157105E9F00088F189E02D75
:204E60001995181619066CF18DEF9FEF909397108093961069EE76E08DEB9CE00E94309446
:204E800010928F0A63E577E08DEB9CE00E94309480E056C30684F785E02D21EC34E03A8374
:204EA000298300914B1010914C1020914D1030914E100B831C832D833E83BE016F5F7F4F37
:204EC000CFCF8FE0EAE1F3E0DE015F9601900D928A95E1F7A0903E10B0903F1090904010AF
:204EE0008BEE96E00E94541A6F8F78A389A39AA34091411050914210609143107091441043
:204F0000E0905110F0905210BCA2ABA29DA28FE0FE017F96DE01509601900D928A95E1F785
:204F2000E0918C10F0918D1080918A1090918B1019959501A8EEB3E00E9463CAAB01BC013A
:204F400040937110509372106093731070937410E0918C10F0918D1080918810909189100D
:204F600019951092751086E090E090939510809394100091761010917710C0907A10D0908E
:204F80007B108FE0FE017096DE01119601900D928A95E1F748885988DBAACAAA0C0D1D1D68
:204FA000B2E04B0E511C712C612CEAE04E0E511C611C711CE114F10471F0D7018D919C9164
:204FC000119717962D913C91820F931F0496480E591E611C711CAE01425D5F4FC301B201CA
:204FE0000E94461B029609F407C1EAA9FBA9E017F10709F4CDC280E180838AA99BA901962D
:205000009BAB8AABA3019201B801CE01C2960E94661A009709F0E9C088EF96E00E94541AA6
:205020009B01AC01B801CE01C2960E94491C009709F0DBC0EAA9FBA9E017F10709F4A8C288
:2050400084E08083EAA9FBA99F012F5F3F4F3BAB2AAB492D50E0440F551F842FE114F10431
:2050600089F0D70114968C911497880F880F880F4460842B8F7D16964C91B0E24B9FA001A3
:205080001124842B2017310709F482C281838AA99BA901969BAB8AABA501B801CE01C29669
:2050A0000E94891B009709F0A0C029813A814B815C81B801CE01C2960E94491C009709F035
:2050C00094C0E114F10409F06CC08AA99BA98C199D090E94EA6C009709F087C01DAA1CAA4F
:2050E00042E050E070E060E0CE01C4960E944F6D009709F07AC08CA99DA9029709F068C147
:20510000809178109091791000917C1010917D101BAB0AAB080F191FAE01475C5F4FB8017E
:20512000CE01C2960E94731B009709F05EC089AD807F803209F04CC1AE01425D5F4FB801C8
:20514000CE01C2960E94DC1A009709F04EC08EA59FA5A8A9B9A90297A105B10509F032C1E7
:20516000AE01485C5F4FB801CE01C2960E94731B0097D9F5AE014A5C5F4FB801CE01C296D6
:205180000E94731B009789F58EA9823009F411C1B0F58823F1F1813009F404C186E090E097
:2051A00003C1F7012081318142815381B801CE01C2960E94491C0097C1F4D70117964D91B3
:2051C0005C91B801CE01C2960E94891B009769F4F7012781308541855285B801CE01C296F6
:2051E0000E94251C009709F470CF90939710809396100E94F66F3ECE89EF9FEFF6CF8430E4
:2052000009F4DDC008F4D8C0853041F685E090E0CBC01092951010929410809194109091B1
:205220009510892B09F0D1C0109297101092961011E0109393106DEF76E08DEB9CE00E947B
:20524000309410938F0A0E940370882309F46FC1C0904110D0904210E0904310F090441077
:2052600089E097E00E94541A6AAF7BAF8CAF9DAFE0918C10F0918D10B701A60180918A103F
:2052800090918B101995C0906F10D0907010FFEFCF16DF0609F09FC081E090E09093701071
:2052A00080936F10CC24C394D12CE0907610F090771080907A1090907B109FA68EA6E80C69
:2052C000F91C8AAD9BAD0396B0E0A0E02C013D01E2E04E0E511C611C711CAE01415E5F4F95
:2052E000C301B2010E94461B029609F47CC0EEA5FFA5EE15FF0509F44EC182E880838EA579
:205300009FA501969FA78EA7A3019201B701CE018E960E94661A8C01892B09F0FCC0A60196
:20532000B701CE018E960E94891B8C01892B09F0F2C02AAD3BAD4CAD5DADB701CE018E9623
:205340000E94491C8C01892B09F0E5C0EEA5FFA5EE15FF0509F41FC110828EA59FA50196AC
:20536000881999090E94EA6C8C01892B09F0D3C01FAA1EAA49E050E070E060E0CE01C69680
:205380000E944F6D8C01892B09F0C5C08EA99FA90997B9F10FB6F894DEBF0FBECDBF87EF6A
:2053A0009FEF28C081E090E0909395108093941034CF82E090E0F8CF83E090E0F5CF84E090
:2053C00090E0F2CF88EF9FEF10CF86EF9FEF0DCF87EF9FEF0ACF2FEFC21AD20AD092701044
:2053E000C0926F1062CF0FB6F894DEBF0FBECDBF89EF9FEF90939710809396100E94F66FD4
:2054000096C08091781090917910E0907C10F0907D10FBAAEAAAE80EF91EAE01475C5F4FA4
:20542000B701CE01C2960E94731B8C01892B09F072C089AD807F803909F0ACCFAE01415E41
:205440005F4FB701CE01C2960E94DC1A8C01892B09F061C08F8D98A1A9A1BAA10397A10592
:20546000B10540F40FB6F894DEBF0FBECDBF88EF9FEFC0CFAE014C5C5F4FB701CE01C29683
:205480000E94A11B8C01892B09F045C03E012EE2620E711C6301912C812C80E8282E312C3A
:2054A00092E0492E512C8F8D98A10297881699061CF090E080E065C082E08816910441F193
:2054C000AE01485C5F4FB701CE01C2960E94731B009701F588AD813089F030F08230A1F06D
:2054E000F6013182208203C0D6011D921C92FFEF8F1A9F0A22E0C20ED11CD5CF81E090E0F5
:20550000F60191838083F3CFD6014D925C92EFCF84EF9FEF8C010FB6F894DEBF0FBECDBF84
:205520001093971000939610012B09F067CF46E050E069E277E080E397E00E94177081E031
:20554000ED960FB6F894DEBF0FBECDBFDF91CF911F910F91FF90EF90DF90CF90BF90AF90F7
:205560009F908F907F906F905F904F903F902F900895D3012D913D913D012038310529F091
:20558000019688159905A9F7C6CF05EF1FEFC3CF8FEF9FEF2ACE0FEF1FEFBDCF4F925F9202
:2055A0006F927F928F929F92AF92BF92CF92DF92EF92FF920F931F93CF93DF9300D01F9268
:2055C0001F92CDB7DEB7DC012C912B32E1F12D32D9F50196EE24E394FC01208130ED320FEF
:2055E0003A3010F02E3291F58C0160E070E0CB01F801219130ED832E820E39E0381508F407
:2056000044C06A3949E97407840749E1940708F046C0AAE0B0E09B01AC010E942ECA912C2E
:20562000B12CA12C240135014094509460947094461657066806790690F1680D791D8A1DDC
:205640009B1D8F01D5CF0196E12CC6CF198229813A814B815C816D8170E080E090E00F90CF
:205660000F900F900F900F90DF91CF911F910F91FF90EF90DF90CF90BF90AF909F908F90D6
:205680007F906F905F904F900895211108C0EE2051F161307105810550E89507A0F0F12C39
:2056A000BAE08B2E912CA12CB12C6115710530E883079105F8F0A50194010E9441CACA0171
:2056C000B901F394F2CF22E029839B01AC0188279927DC01821B930BA40BB50B8A839B83B0
:2056E000AC83BD83B4CF23E029836A837B838C839D83ADCFF801D8012D918D0130ED320FF7
:205700003A3010F4F394F6CF2E3201F58F010F5F1F4FF8010F5F1F4F2081A0EDDA2ED20E22
:20572000B9E0BD1598F06C3CECEC7E07ECE08E07910578F7AAE0B0E09B01AC010E942ECA0E
:205740006D0D711D811D911DFA94E3CF20812F7D10E000E0253409F050C021812D32B1F58F
:205760003296CC24C394DF0110E000E02F2D0F2C000C330B5AE0B52EFD01DD9040ED4D0D7A
:205780004A30B0F5B09EA001B19E500D11240D2DDD0C110B00531109040F151FA801420F2D
:2057A000531F4732510544F3CC20B9F080E090E0A0E0B0E8E11003C080E090E0DC0121E092
:2057C00029838A839B83AC83BD8341CF2B3219F03196C12CC8CF3296FCCF80E090E0A0E8D7
:2057E000BFEFE110ECCF80E090E0A0E8BFE7E7CFCC2019F01195019511092081211126CF88
:205800000F0D111DF7FC1A950E94C0C838EAC32E3DE1D32E101611063CF011950195110981
:2058200040E9C42E4DE1D42EF12C0115110591F000FF0CC024E0F29EF0011124EC0DFD1DBB
:2058400025913591459154910E9421C915950795F394EBCFE110905821E029836A837B838D
:205860008C839D83F4CECF93DF9300D01F921F92CDB7DEB7DC011496EC911497E250ED301A
:2058800008F038C0F0E08827E75BF34D8F4F0C94D5CB692C7A2C7E2C812C562C7A2C7A2C99
:2058A0007A2C5D2C7A2C622C7A2C852C6C9170E090E080E00E94C0C82CC06D917D918D91D1
:2058C0009C91F8CF6D917D918D919C910E94C2C820C0CD010E94CE2A3A834B835C836D83AF
:2058E0006A817B818C819D81223081F3233011F3213079F060E070E0CB010BC08D919C914D
:20590000E9CF8D919C910496E5CF6D917D918D919C910F900F900F900F900F90DF91CF91F4
:205920000895AF92BF92CF92DF92EF92FF920F931F93CF93DF93EC018B018C8180FF24C043
:20594000A881B981FB018381948130E020E00097D9F0A817B907D1F5F801608171811296A6
:205960008C911297815012968C93129781110CC08D919C9111972115310529F1F90191833B
:205980008083CD010E94C6138C81807631F1209721F1F8805801F5E1AF0EB11C8FEFF81610
:2059A000D1F06F2DC5010E94FE216C01FC01E580B8010E94912CF801818DF6018083F80122
:2059C000F18EFE2CEBCF94838383DBCF9C01FC0180819181BCCFF882F9821C82DF91CF9102
:2059E0001F910F91FF90EF90DF90CF90BF90AF9008951F93CF93DF93EC01162F6A817B81B1
:205A00006115710589F04C815D81FB0183818417150651F4440F551F4F5F5F4F8881998135
:205A20000E9490139B838A838A819B81009759F02C813D81A9014F5F5F4F5D834C83820F3E
:205A4000931FFC011483DF91CF911F9108959F92AF92BF92CF92DF92EF92FF920F931F93E8
:205A6000CF93DF9300D01F921F92CDB7DEB78C010E943B22D82EF8011486F12CE12C60EF69
:205A8000C62EC8010E943B22F8011486D81609F4B3C0811113C082E090E00F900F900F9045
:205AA0000F900F90DF91CF911F910F91FF90EF90DF90CF90BF90AF909F9008958C3509F098
:205AC00099C0C8010E943B22882329F3E8E0F5E0853709F083C0F801148654E0952EB12CE2
:205AE000A12CC8010E943B228823A9F2813434F48053803130F083E090E0CFCF8F7D8753F3
:205B0000F8CF44E0AA0CBB1C4A95E1F7A82AF80114869A949110E5CFC501985D8115944049
:205B200020F47501F3E0FF22ACCFC5019C5D81159440A8F483E0B822B701762F6627770FFA
:205B4000770F6A297B2990E080E00196603871058105910540F4C8010E94F92C92CFB5011C
:205B600090E080E0F3CF1982262F2F7320682A8326E096958795779567952A95D1F760325E
:205B8000710580F4606C6B835E01E4E0AE0EB11CF50162915F01662309F473CFC8010E9439
:205BA000F92CF6CF262F2F7320682B8386E0769567958A95E1F76031710538F4606E6C837A
:205BC0005E01F5E0AF0EB11CE3CF60686C83CD825E0126E0A20EB11CDBCF3296908199232E
:205BE00009F489CF8913F9CF8181882309F483CFF8011486682FAFCF82819381892B19F470
:205C000084E090E04ACF90E080E047CFAF92BF92CF92DF92EF92FF920F931F93CF93DF9313
:205C200000D01F92CDB7DEB7DC0112962D913C9113972C5F3F4F14964D915C9144305105B8
:205C400080F57901D901E0E0142F022FFA2FF21BF11730F4DD90F1E0D110F0E0EF2BF6CF17
:205C6000E1111FC082E0FB0184838E2D801B811728F4D7018D917D018193F7CF640F751F8F
:205C8000FB0110820F900F900F900F90DF91CF911F910F91FF90EF90DF90CF90BF90AF9070
:205CA00008957B018C01420F531FDA011C92FC01C080D180A480B5803A832983AB828B2DBD
:205CC0008F778C83BE016F5F7F4FC60103960E94CD110097D9F4D80112966D917C91A501DE
:205CE000C6010E949013D801ED91FC9123813481DC012D933C9394838383F80113821282B0
:205D000025E0F701248391838083BCCFDC0112962C9112972F5F12962C93F2CFBF92CF92EA
:205D2000DF92EF92FF920F931F93CF93DF93EC01198D1F3F81F0612F45960E94FE21FC012D
:205D40008081898F309709F477C014828FEF8583BF01812F76C06C0135E0C30ED11CE880C5
:205D6000F9808F89882341F0C6010E94F411E62FF72F182F309749F71F89988D191324C0E2
:205D8000103109F459C0110F6D897E89D701ED91FC91B4E01B9FA0011124C616D70609F0D6
:205DA00044C00190F081E02DBA01C7011995009709F442C020E1F601DC0101900D922A9545
:205DC000E1F79E8B8D8B188F0D891E898F8921E0280F2F8BE4E08E9FC0011124080F191F86
:205DE00090E1B92E203111F48FE0B82EF6E0BF9EB0011124D701ED91FC910190F081E02D95
:205E0000C7011995F80193838283892B09F4B12CD801BC9211961C92012B71F0C6010E94F8
:205E2000F411E62FF72F182F8DCF0480F581E02DC7011995009729F681E08A8360E070E04E
:205E40008FEFDF91CF911F910F91FF90EF90DF90CF90BF9008951F93CF93DF93EC01CB019D
:205E60001B81612F45960E94FE21998388831A83009719F0FC0185818B83DF91CF911F9165
:205E80000895AF92BF92CF92DF92EF92FF920F931F93CF93DF93CDB7DEB762970FB6F89464
:205EA000DEBF0FBECDBF7C015A01FB018FEF30E020E03097B9F08701B70180810E941822FD
:205EC0006F83788789879A87FC86EB8686E0FE013796DE01119601900D928A95E1F72F811E
:205EE000388589853A8329838B831E830D8386E0FE013196DE01179601900D928A95E1F750
:205F000086E0FE013796DE011D9601900D928A95E1F7750110E000E08D859E850097A1F0F3
:205F20000C30110589F00F5F1F4F0E94332CF70161937193819391937F0169897A89CE014D
:205F40000D960E942B2FE8CFC80162960FB6F894DEBF0FBECDBFDF91CF911F910F91FF9034
:205F6000EF90DF90CF90BF90AF900895FC0130E020E06115710549F0DB010D900020E9F7FE
:205F80009D0121503109261B370B718360832283832F8F7793819078982B40FB97F9938341
:205FA0000895CF93DF9300D01F92CDB7DEB7FC018481843061F08530E1F040E0BF018230B7
:205FC00049F060E070E080E090E090680BC06081718141E0CE0101960E94B62F69817A819F
:205FE0008B819C810F900F900F900F90DF91CF91089580819181FC01238130E00496BC0174
:20600000C9019F779F77EECF7F928F929F92AF92BF92CF92DF92EF92FF920F931F93CF933E
:20602000DF9300D01F92CDB7DEB75B0189016A01452B09F451C0B901FC0180810E941822F1
:2060400069837A838B839C83FF24F3947724739489819A810097F1F1FF20A9F10E94D12FE5
:20606000362F272FAC015F774A155B0561F5B601832F922F0E94EDC5892B29F5EC80898107
:206080009A812B8189839A832B83EC8289819A81009739F0B801CE0101960E942B2F8981EA
:2060A0009A810F900F900F900F90DF91CF911F910F91FF90EF90DF90CF90BF90AF909F9090
:2060C0008F907F900895F724B801CE0101960E942B2FBECF2FEFD6CF2FEF90E080E0D2CFE0
:2060E0000F931F93CF93DF93EC018B01CB010E940AC69C018E8D8032A9F4CE014A96A80162
:20610000B90130E020E0009721F09E010E9404309C0181E0232B09F480E0DF91CF911F916F
:206120000F91089590E080E0EACFFC0120813181C9014A964281538164817581009759F04D
:20614000D9015E96EC91E03211F090E080E0009711F00C94043090E080E00895CF93DF9364
:20616000FC01C081D1810E949530009761F0FC012481203441F4382F292F632F722FCE0154
:20618000DF91CF91089530E020E0F7CF0E949530009711F00C94467390E080E008950E9455
:2061A0009530009711F00C94332C60E070E0CB010895CF93DF93EC01CB01CF3FD10509F020
:2061C000B0F4BE016B5F7F4F6C177D0780F0DC01ED91FC910190F081E02D1995009721F000
:2061E000FC01C38321E02283DF91CF91089590E080E0FACF2F923F924F925F926F927F923A
:206200008F929F92AF92BF92CF92DF92EF92FF920F931F93CF93DF9300D01F92CDB7DEB7F4
:20622000FC01808191819C838B834A96E1F4912C812CB4018B819C810F900F900F900F90A8
:20624000DF91CF911F910F91FF90EF90DF90CF90BF90AF909F908F907F906F905F904F908A
:206260003F902F9008952280338044805580A280B380A114B104D9F2EB81FC81268D2111AD
:2062800035C020E2268F2FEF228F238F2B813C81B201A5010E9404304C01892B51F68B81E5
:2062A0009C810E948E2E8A836B01672B11F28B819C810E948E2E89833B01672B09F4B9CF6F
:2062C0007201F4E04F16510408F03EC090E080E020E0342D831768F4F501E80FF91FE49126
:2062E00041E0E11140E0242B0196F4CF203271F29ECF211129C082E0F6018483D60190E0DE
:2063000080E0831738F4F501E80FF91FE491ED930196F7CFF601EE0DFF1D10822981F601BF
:206320002583EB81FC81638D6F3F09F440C0CF0145960E94FE212A81FC0125832981EB815F
:20634000FC81238F430175CFEB81FC810381148101151105C1F1F80183818E151F0441F4AE
:20636000A701B501C80104960E94EDC5892B31F1F80100811181ECCFA701B501C8010496AA
:206380000E94FAC5F801EE0DFF1D1482EB81FC8183819481F80191838083EB81FC81148364
:2063A000038385E0F601848311830083B7CF2A81EB81FC81228F8981838FC4CFF801828167
:2063C0008F5F8283EECFEB81FC8160817181C7010E94D9308C01892B79F681E0EB81FC81E4
:2063E000828327CFCF92DF92EF92FF92CF93DF937B010E94FA30DC01CB01EB010097B1F0D5
:20640000F701C080D180E280F380BD010E94912C8EE08C83C882D982EA82FB8281E0DF9125
:20642000CF91FF90EF90DF90CF90089580E0F7CF0F931F93CF93DF938B010E94FA30DC0100
:20644000CB01EB010097A9F0F8011081BD010E94912C8AE08C83812F90E0B0E0A0E08883F9
:206460009983AA83BB8381E0DF91CF911F910F91089580E0F9CFCF92DF92EF92FF92CF9309
:20648000DF937B010E94FA30DC01CB01EB010097B1F0F701C080D180E280F380BD010E94B7
:2064A000912C8AE08C83C882D982EA82FB8281E0DF91CF91FF90EF90DF90CF90089580E00E
:2064C000F7CF0F931F93CF93DF938B010E94FA30DC01CB01EB010097B1F0F801008111819D
:2064E000BD010E94912C8CE08C83012E000C220B330B088319832A833B8381E0DF91CF919B
:206500001F910F91089580E0F9CFCF92DF92EF92FF920F931F93CF93DF93CDB7DEB7AA9700
:206520000FB6F894DEBF0FBECDBF10920F0A10920E0A85E09FE00E948C1540E8849F90019C
:20654000112480910F0A822B80930F0A8CED9EE00E948C1590E4899F9001112480910F0A3D
:20656000822B80930F0A83EB9EE00E948C15E0E28E9F9001112480910F0A822B80930F0A5B
:206580008CED9EE00E949615F0E18F9F9001112480910F0A822B80930F0A83EB9EE00E9461
:2065A000961590910F0A2091BF0E922B20918E0A44E0249F90011124292B9091E80E990FB2
:2065C000922BE8E08E9F90011124922B90930F0A8091B10EF0E88F9FC00111242091750E4A
:2065E00040E4249F90011124822B90910E0A892B2091510290E2299F90011124822B2091F2
:206600005202E0E12E9F90011124822B80930E0A87E10E94F49533E0880F991F3A95E1F75E
:206620009C012870332780910E0A822B80930E0A88E10E94F495880F991F880F991F9C01FB
:206640002470332780910E0A822B80930E0A8CE10E94F495880F991F9C01227033278091CA
:206660000E0A822B80930E0A8DE10E94F4959C012170332780910E0A822B80930E0A0E9466
:206680000370811102C00E94F2260E940370882309F4D8C18E010F5F1F4FC8010E946813D2
:2066A00020E030E048EC52E46091C4027091C5028091C6029091C7020E9421C90E9451CBD4
:2066C00078A76FA348EF50E1B801CE0181960E94BF15BE01695D7F4FCE0181960E9461329E
:2066E00020E030E048EC52E46091C8027091C9028091CA029091CB020E9421C90E9451CB84
:2067000078A76FA345EF50E1B801CE0181960E94BF15BE01695D7F4FCE0181960E94613260
:2067200020E030E048EC52E46091D0027091D1028091D2029091D3020E9421C90E9451CB23
:2067400078A76FA341EF50E1B801CE0181960E94BF15BE01695D7F4FCE0181960E94613224
:206760006091CC027091CD028091CE029091CF020E9451CB78A76FA34DEE50E1B801CE01D4
:2067800081960E94BF15BE01695D7F4FCE0181960E9461326091050F7091060F8091070FBC
:2067A0009091080F28EEC22E23E0D22EE12CF12CA70196010E9441CA2FA338A749A75AA7E0
:2067C00046EE50E1B801CE0181960E94BF15BE01695D7F4FCE0181960E943B326091DC0E1C
:2067E0007091DD0E8091DE0E9091DF0EA70196010E9441CA2FA338A749A75AA740EE50E1B5
:20680000B801CE0181960E94BF15BE01695D7F4FCE0181960E943B326091B30E7091B40EA6
:206820008091B50E9091B60EA70196010E9441CA2FA338A749A75AA749ED50E1B801CE0122
:2068400081960E94BF15BE01695D7F4FCE0181960E943B32BE01655E7F4FC8010E946B8DB0
:2068600040E15BE0FA0101900020E9F7AF0141515B4060E17BE087E697E00E941770C801E1
:206880000E94D0130E940370882309F4E6C08E010F5F1F4FC8010E946813C090DC02D09031
:2068A000DD02E090DE02F090DF028CED9EE00E9437119B01AC01C701B6010E9472CA0E941F
:2068C00051CB78A76FA34EEA50E1B801CE0181960E94BF15BE01695D7F4FCE0181960E9412
:2068E0006132C090E002D090E102E090E202F090E30283EB9EE00E9437119B01AC01C701F0
:20690000B6010E9472CA0E9451CB78A76FA349EA50E1B801CE0181960E94BF15BE01695DF5
:206920007F4FCE0181960E94613246EA50E1B801CE0181960E94BF156FE07AE0CE01819669
